:020000040800F2
:1000000000020020C100000851030008210400087C
:10001000210400082104000821040008210400082C
:10002000210400082104000821040008210400081C
:10003000210400082104000821040008210400080C
:1000400021040008210400082104000821040008FC
:1000500021040008210400082104000821040008EC
:10006000210400086105000851060008A1050008E8
:100070002104000831040008B1040008C10400088C
:1000800021040008210400082104000821040008BC
:1000900021040008210400082104000821040008AC
:1000A000210400082104000821040008C10D0008F3
:1000B000210400082104000821040008210400088C
:1000C00072B6244880F30888234880F30988022008
:1000D00080F31488BFF36F8F00F09AFF00F0F8FBF5
:1000E0001E481F491B4A914202DA08600431FAE7B0
:1000F0001C49194A914202DA08600431FAE71A49A8
:100100001A4A1B4B9A4204DA086810600431043220
:10011000F8E700201749184A914202DA08600431D2
:10012000FAE700F02DFF00F06BFF144C144DAC42C9
:1001300003DA216888470434F9E700F0D1FF114C55
:10014000114DAC4203DA216888470434F9E70F49BE
:1001500008470000000200200004002055555555B6
:100160000000002000020020D0160008000400203B
:100170005C04002060040020E0060020C0000008AD
:10018000C0000008C0000008C0000008F10F00080F
:10019000F0B544464D4656465F46F0B46B46CB60DC
:1001A000C3689D46F0BCA046A946B246BB46F0BD1A
:1001B00062B6281CA047002000F0BAFE00F0E0FB69
:1001C000014A024B1360FEE704ED00E000000080EE
:1001D000002243088B4274D303098B425FD3030A86
:1001E0008B4244D3030B8B4228D3030C8B420DD399
:1001F000FF22090212BA030C8B4202D31212090227
:1002000065D0030B8B4219D300E0090AC30B8B4264
:1002100001D3CB03C01A5241830B8B4201D38B0312
:10022000C01A5241430B8B4201D34B03C01A5241B7
:10023000030B8B4201D30B03C01A5241C30A8B42FA
:1002400001D3CB02C01A5241830A8B4201D38B02E5
:10025000C01A5241430A8B4201D34B02C01A524189
:10026000030A8B4201D30B02C01A5241CDD2C309FB
:100270008B4201D3CB01C01A524183098B4201D377
:100280008B01C01A524143098B4201D34B01C01A62
:10029000524103098B4201D30B01C01A5241C308DA
:1002A0008B4201D3CB00C01A524183088B4201D349
:1002B0008B00C01A524143088B4201D34B00C01A35
:1002C0005241411A00D20146524110467047FFE7A1
:1002D00001B5002000F006F802BDC0460029F7D0A5
:1002E00076E770477047C04600000000000000003D
:1002F0008021024A13680B431360704700380140A5
:1003000080B500AF0F3011D072B6EFF30983203BF8
:1003100083F3098880225204DA61074A11689269DE
:1003200089689268914203D8044A9A61BD4680BDAB
:10033000034A9A61FAE7C04648050020C001000858
:10034000BD010008000000000000000000000000E7
:1003500080B500AFEFF30983203383F3098862B6D9
:10036000BD4680BD0000000000000000000000004D
:1003700010B572B6094C4A1E121820684B4201385B
:10038000401818401A40064B1B681B1A9A4203D8A3
:100390008218226062B610BD0020FBE7BC06002078
:1003A000B80600200000000000000000000000006F
:1003B00072B62023C35C072B0CD8124A9B00D3587B
:1003C0009F46426A936801339360026843681A60EB
:1003D00002685360012300225B4243622133C2540E
:1003E0008268094B1B6899689142FBD25A68036086
:1003F00042601060586062B670470022436A1A601B
:10040000E8E7C04664150008480500200000000029
:10041000FEE7C046000000000000000000000000F1
:10042000FEE7C046000000000000000000000000E1
:1004300070B51B4D7646AA691369D4681C40FF232A
:100440002340DB431361A30705D56B681B69002BB1
:1004500001D028009847630705D56B689B69002B7E
:1004600001D028009847230705D56B681B6A002B2D
:1004700001D028009847E30605D56B689B6A002BDE
:1004800001D028009847E30705D56B689B68002BCF
:1004900001D0280098473000FFF732FF70BDC046FA
:1004A0009404002000000000000000000000000094
:1004B00010B5FFF7BDFF10BD0000000000000000F8
:1004C000F8B58026CE464746F605336980B5F04636
:1004D0009B0706D44046FFF713FF0CBC9046994695
:1004E000F8BD0023336172B6194C706AE369A26AE1
:1004F0009968851A8D4218D325000027B1461C350E
:100500005218A2621A68D9685560E261DF60AA4297
:1005100018D062B61869884772B64A46E369506ACD
:100520009968A26A861AB142EAD90A4CA34207D056
:100530008A18121A022A08D380231218DB055A637C
:1005400062B6C7E74A46D760E3E70222F4E7C0464F
:1005500048050020640500200000000000000000A5
:100560000E210A4B10B51A6874461140084A1268E9
:100570000A4206D0074A59601368002B01D0506820
:1005800098472000FFF7BCFE10BDC04600000240A7
:1005900008000240100500200000000000000000DC
:1005A0000E21244A10B5136874461B0B1940224BC8
:1005B0001B680B4207D00B035360204A9369002B42
:1005C00001D0D06998470E211A4A13681B0C1940B4
:1005D0001B4B1B680B4207D00B045360174A136A6E
:1005E000002B01D0506A98470E21124A13681B0D48
:1005F0001940144B1B680B4207D00B0553600F4A80
:10060000936A002B01D0D06A98470E21094A1368DB
:100610001B0E19400C4B1B680B4207D00B06536096
:10062000064A136B002B01D0506B98472000FFF750
:1006300067FE10BD0000024044000240100500208B
:10064000580002406C0002408000024000000000A0
:100650000E21134A10B5136874461B091940114B3B
:100660001B680B4207D00B0153600F4A9368002BA5
:1006700001D0D06898470E21094A13681B0A194017
:100680000A4B1B680B4207D00B025360064A1369E2
:10069000002B01D0506998472000FFF731FE10BDB4
:1006A000000002401C000240100500203000024003
:1006B0002022074B10B59969885418680468636054
:1006C0001C60986101238354FFF762FD10BDC04692
:1006D00048050020000000000000000000000000AD
:1006E000F8B54E4645465746DE46714A00219446C7
:1006F0000122E0B5037B8246DB000C3363441A60C1
:1007000059604168036807208146083080460C38EC
:100710008A40012500210126844607E058461C6ACC
:1007200084431C62520825D0AD0001311642F9D035
:100730004846444608408000844030008840674670
:10074000A3465C68844348008740F8435C609C682B
:1007500004409C60DC680440DC601C6804402C435E
:100760001C600729DAD958465C6A520884435C62E7
:10077000002AD9D153469D6872B64D4B5E686B60B6
:100780002B78AE60012B62D0AC6922606263A263F9
:10079000E26322646262464B68691968FFF718FDDC
:1007A000434B0138DB6A013EA062E66263600F23BF
:1007B0003F4AD2681340012B47D0022B41D000237F
:1007C0000F223B4949690A40012A03D0022A03D17A
:1007D0001E321343102213430F223549C9690A40C0
:1007E000012A04D0022A05D1FF32FF3213438022AE
:1007F000520013430F222E49496A0A40012A04D0AD
:10080000022A05D180229201134380225201134310
:1008100023620123FF2100226361254B22611B6BB0
:100820008B43E36080231B02636485232360833B47
:10083000EA602B7062B63CBC90469946A246AB4635
:10084000F8BD022201231343BAE70022FAE7194B4D
:100850009D4204D0AC69184BA361E3619BE7802102
:10086000164B09019869C02408439861D868640050
:100870000143D960DA60C322114B920099581148A4
:100880000840C02109020143995080218901195172
:10089000196099580C480840C02109040143995037
:1008A0008022D2011A511A60084B6B61D2E7C04610
:1008B000000400209404002068680000001002403A
:1008C00000E100E0FF00FFFFFFFF00FF006CDC0223
:1008D0000121264A13680B43136001311368194242
:1008E000FCD0032153688B43536053680931536034
:1008F0001E4A53680B40FCD1F92110680140116079
:1009000001215360536B0B435363184A0131536BFE
:100910001942FCD00121536A0B435362134A01313F
:10092000536A1942FCD0A02100238903D36251608D
:100930001363802311685B040B43802113600B4A0F
:10094000890413680B42FCD01121094B19605368CC
:100950000F390B435360054A0A3153680B40082B8B
:10096000FBD1012193690B43936170470010024052
:100970000020024000000000000000000000000015
:100980000D4A70B510689169036820245A6013609D
:1009900090610122002502558A680D5500E01B6810
:1009A0009C68A242FBD35A680B604A601160596090
:1009B000FFF7EEFB70BDC0464805002000000000B8
:1009C000F0B587B04B1C4CD0434D01ACAB692361F3
:1009D000424BE3608023DB055A6A02293AD32E009A
:1009E000EB691C36B34264D0AE6A921B89188A4206
:1009F00032D89A68914203D237E01B68891A9A6804
:100A00008A42FAD35A680193626014605C60A16004
:100A10009A68511A996001235B426B62FFF748FEA6
:100A2000049B002B12D0EB69A34223D06268019B88
:100A30001360019B5A600022E2602A001C3293423C
:100A400004D09968A2688C4662449A60AB69586A7F
:100A500007B0F0BD0221C2E79A681B68891A9A683C
:100A6000CEE7FFF725FE1C4DF0E780277618FF053F
:100A70007E63C5E72B00002122681C33EA615360C6
:100A8000E1609A4224D09168A3688C4663449360E5
:100A90008022D205516AAA6A8A1A9342D6D99B1A31
:100AA000022B04D380225B18D2055363CEE70223C6
:100AB000F8E7019363608023AA62A160891800228D
:100AC000DB05EC612C6259631A610232DA60A5E73A
:100AD0008023DB05D960B9E748050020B103000891
:100AE00010B500290AD0074B42689B6918605A600C
:100AF000136043600420FFF763FF10BD01204042F4
:100B0000FBE7C04648050020000000000000000090
:100B1000F0B557464E464546DE46E0B59A46C369AF
:100B200083B004000E001500994672B68023DB05E1
:100B30005A6A00275244019252469B46013A00925B
:100B4000A368002B1ED0A368013BA36063695A1CF5
:100B50006261721C904632781A706369226993420E
:100B600001D3E36863614B46002B01D02000C847E6
:100B700062B6013D0137002D13D072B6A368464618
:100B8000002BE0D1009B033313D85B46596A019BCD
:100B9000591A8A4504D32000FFF7A2FF0028CFD0BE
:100BA00062B6380003B03CBC90469946A246AB46BC
:100BB000F0BD51462000FFF793FFEFE70000000073
:100BC00010B53030FFF7A4FF10BDC0460000000094
:100BD000012310B530305B42FFF79AFF10BDC046CD
:100BE00070B504000E00150072B605E02900200063
:100BF000FFF776FF002817DBA368002BF6D0A36869
:100C0000013BA36063695A1C62611E7063692269BB
:100C1000934201D3E3686361E369002B01D02000B4
:100C2000984762B6002070BD62B6FCE70000000085
:100C300010B53030FFF7D4FF10BDC04600000000F3
:100C4000012210B530305242FFF7CAFF10BDC04636
:100C5000F0B557464E464546DE46E0B59A46C3696E
:100C600083B004000E001500994672B68023DB05A0
:100C70005A6A00275244019252469B46013A00921A
:100C8000A368002B1ED0A368013BA360731C984689
:100C9000A3695A1CA2611B783370A369226993422D
:100CA00001D3E368A3614B46002B01D02000C84765
:100CB00062B6013D0137002D13D072B6A3684646D7
:100CC000002BE0D1009B033313D85B46596A019B8C
:100CD000591A8A4504D32000FFF702FF0028CFD01D
:100CE00062B6380003B03CBC90469946A246AB467B
:100CF000F0BD51462000FFF7F3FEEFE700000000D3
:100D000010B50C30FFF7A4FF10BDC0460000000076
:100D1000012310B50C305B42FFF79AFF10BDC046AF
:100D200070B504000D0072B605E029002000FFF741
:100D3000D7FE002816DBA368002BF6D0A368A269B3
:100D4000013BA360531CA36115782269934201D330
:100D5000E368A361E369002B01D02000984762B6E5
:100D6000280070BD62B6FCE7000000000000000033
:100D700010B50C30FFF7D4FF10BDC04600000000D6
:100D8000012110B50C304942FFF7CAFF10BDC04623
:100D900000222023C2548268054B1B689968914247
:100DA000FBD25A6803604260106058607047C046CA
:100DB00048050020000000000000000000000000C6
:100DC000F0B54746CE46594C80B5666D83B037685E
:100DD000F569F04635622B0749D1EB0540D4AB06E7
:100DE00018D480233B4201D02B4255D16B0609D544
:100DF00072B6636CA26C934200D174E040239F43AF
:100E0000376062B64046FFF77BFA03B00CBC9046F1
:100E10009946F0BD72B65C23B28CE35C1A406369FC
:100E20009146002B67D0236A626A934267D0626959
:100E3000013262615A1C22624A461A70236AE269D0
:100E400093424DD22300E0680C33984206D00268EA
:100E5000E260536000234362FFF79AFF62B6C0E787
:100E600072B68020800000F0FBF862B6B7E7280772
:100E7000C00FC001EB0701D520231843AB0701D5F4
:100E8000402318436B0702D580235B00184372B6DA
:100E900000F0E6F862B6A0E772B6A36C626C9A4204
:100EA00035D0A26B0132A2635A1CA2641B7899460A
:100EB000236C9A4201D3E36BA3642300206B30338D
:100EC000984206D002682263536000234362FFF712
:100ED0005FFF4B466A46D380D388338562B685E789
:100EE000A3692362AEE7A36B002B00D186E7102035
:100EF00000F0B6F882E7042000F0B2F893E76269E8
:100F0000002A94D08020C00000F0AAF8A6E7A26BC7
:100F1000002AC6D0082000F0A3F8C0233A009A4364
:100F20001300402213433360D8E7C046B0040020CA
:100F300070B572B60F4B9C6925006062A06A2835B7
:100F4000854206D00368A362FFF722FFA06AA84289
:100F5000F8D12223E35C002B08D12123E35C9B071B
:100F600004D1226963691A61226953610F20FFF776
:100F70009FFB70BD4805002000000000000000003D
:100F80000322F0B5C64690467D329446002600B551
:100F9000114F124D124C134B1349BC449C420DD9B6
:100FA0001A0001C901C29442FBD8DA43141942461F
:100FB000944304341B199D4202D940C39D42FCD87E
:100FC0001037674504D239687B68BC68FD68E5E77F
:100FD00004BC9046F0BDC04684150008E006002021
:100FE000E0060020E00600202C17000800000000AA
:100FF000FEE7C04600000000000000000000000006
:101000007047C04600000000000000000000000023
:101010007047C04600000000000000000000000013
:1010200030B5038A1C1C8B4200D90C1C8168037BE1
:10103000C089A5B2021CA84200D2221C92B272B68C
:1010400001209840CC680C332043C86089699B001C
:10105000CB185A6062B630BD0000000000000000EE
:10106000F0B5C6461A4E00B5746804360500B442A1
:1010700023D000232027984602E02468B4421CD0E5
:10108000E3682B43E360002D02D022691A42F4D0BA
:101090006068A368426B13434363C25D0A2A0FD0A2
:1010A0000B2AEAD1426A13409A42E6D14346436290
:1010B000FFF76EFE2468B442E2D104BC9046F0BD56
:1010C000426A1A42D9D043464362FFF761FEF1E714
:1010D000B00400200000000000000000000000003C
:1010E000EA4B01219A6AF0B50022C646494200B592
:1010F00099629A62186919611A61D868E4490143D2
:10110000D9608021DA60D86949050143D96180211D
:10111000E0484900046821430160C020196A80004A
:1011200001400138FF38814203D080214902196211
:101130001A628022D54B1202196A114207D180210E
:10114000186A890001431962196A0A431A62D24C6B
:10115000002325002200D149D1488C351432036088
:101160000B600831954201D05068F7E70121CD4A64
:1011700049425160FC22C548D2034169A0250A4377
:101180004261FC2190220906D20553609160C64954
:10119000AD05D160C5495161136253621560FC25EC
:1011A000C34AAD0053609560C24DD560A8252D0699
:1011B0005161136253621560BF4AC04D5360956020
:1011C000BF4DD560BF4D5561BF4D13625362156071
:1011D000BE4ABF4D53609360D56051611362536244
:1011E0001360BC4A53609360D5605161BA4D13627D
:1011F00053621360B94A53609360D5605161012115
:10120000136253621360B64A117011001831916174
:10121000D161D462B349B44CD3601463536093601A
:1012200013615361136291628022846992002243A8
:101230008261AE4A136080238A681B0613438B6069
:101240008B68002BFCDB914CA94AA3690021134059
:1012500004220120A361A74BA74D1A74A74A596025
:10126000D9609A611870A64BC6261A0020C25A602F
:101270001A000C32DA601A61A24AC0259A615A62D9
:101280001A621032DA611A0030321A635A6310227D
:1012900059619A639C4A1872DA639A645A641032EC
:1012A0001A649A4A9962DB62DA64994A1B655A6544
:1012B000984AB6009A65984B2D069A59C327120290
:1012C000120A2A439A51C02580226D0012055A51F4
:1012D0001A60E26901260243E261904C7642A268FC
:1012E000BF000243A26080228D4CD205946280240C
:1012F000D66291615163D160516050611060DA59DA
:1013000024061202120A2243DA51802212025A5192
:101310001A60844B844C1A001C325E621B605B6056
:101320009960DA611A629962804A1D001460804CEB
:10133000804A58351460804A804C916014601400D3
:101340001034D16014615461916151229954013279
:1013500098547B4A9D659A641A001D00303280249F
:101360001A615A619A6150225C35DD651D66754DC2
:101370009C63DC66596698542A6A734E99663240BB
:101380001B645B64D9642A6262B672B66F4AAC258C
:10139000160052516C36103D56516D4D1151D567A6
:1013A0006C4D0C341551B0250C341051963C5455ED
:1013B000AF3411551B341051043C1151043C1151F0
:1013C000123C1055644CA73014505C690838135017
:1013D0000430145010009030206114005861B8207F
:1013E000B83414501000BC24BC30105104341051D7
:1013F0000C3C986911518468002C43D051551B68EE
:1014000099680029FBD194209031535059681150AC
:1014100090320A605A6062B6504EFA273000FFF7E9
:101420005FF94F4DFF002800FFF75AF9AF239B00EB
:101430009846AF24A40021003000FFF7F1FD210001
:101440002800FFF7EDFD72B6FA2108204900FFF7EA
:10145000B7FA62B63234A4B2BC42ECD121003000FB
:10146000FFF7DEFD21002800FFF7DAFD72B6FA2152
:1014700008204900FFF7A4FA62B6323CA4B2444502
:10148000ECD1D6E72023C454FEE7C046001002404A
:10149000FFFFBFFF00700040041600081005002089
:1014A000080002400000024054551564FFFF000090
:1014B00000040048555555010008004803F00FF09E
:1014C000540550053FFC000001500500000C004889
:1014D00055555555001000485055555500140048B5
:1014E00060040020002401408A25000008270140F4
:1014F000FFFDFFFF94040020B0160008002C0140FF
:10150000B0040020C0060020D0060020F102000830
:1015100000380140006CDC0200E100E000580140AE
:10152000BF12000048050020E0060020BC06002095
:1015300000400020B8060020980600207103000833
:101540009016000800ED00E0FFFF00FFC00500203E
:1015500011040008B1010008A81600083404002096
:04156000480400201B
:10156400F6030008D4030008D4030008FA030008B3
:10157400CA030008C2030008D4030008CA03000811
:101584002C170008E0060020E0060020E0060020FA
:101594002C170008000000000000000000000000FC
:1015A4002C170008000000000000000000000000EC
:1015B4002C170008000000000000000000000000DC
:1015C4002C170008000000000000000000000000CC
:1015D4002C170008000000000000000000000000BC
:1015E4002C170008000000000000000000000000AC
:1015F4002C1700080000000000000000000000009C
:101604000000024008000240010000000000000049
:1016140000000900000002401C0002400600000017
:101624000000000004010A000000024030000240F3
:10163400060000000000000008020A00000002404A
:101644004400024078000000000000000C030B007E
:101654000000024058000240780000000000000032
:1016640010040B00000002406C00024078000000EF
:101674000000000014050B0000000240800002403E
:10168400780000000000000018060B006D61696E10
:1016940000160020040444080C1014181C202122F5
:1016A4000000000069646C6500000000D10B0008B4
:1016B400110D0008410C0008810D0008310C0008D0
:0C16C400710D0008C10B0008010D0008AA
:1016D00040420F00204E000000000000000000000B
:1016E00000000000000000000000000000000000FA
:1016F00000000000000000000000000000000000EA
:1017000000000000000400480900000094040020CC
:101710000300F401D00700000010004800000000A2
:0C172000940400200400F401D007000035
:04000005080000C12E
:00000001FF
